{
  "contractName": "Betting",
  "abi": [
    {
      "inputs": [],
      "payable": false,
      "stateMutability": "nonpayable",
      "type": "constructor"
    },
    {
      "constant": true,
      "inputs": [],
      "name": "maxAmountOfBets",
      "outputs": [
        {
          "internalType": "uint256",
          "name": "",
          "type": "uint256"
        }
      ],
      "payable": false,
      "stateMutability": "view",
      "type": "function"
    },
    {
      "constant": true,
      "inputs": [],
      "name": "minimumBet",
      "outputs": [
        {
          "internalType": "uint256",
          "name": "",
          "type": "uint256"
        }
      ],
      "payable": false,
      "stateMutability": "view",
      "type": "function"
    },
    {
      "constant": true,
      "inputs": [],
      "name": "numberOfBets",
      "outputs": [
        {
          "internalType": "uint256",
          "name": "",
          "type": "uint256"
        }
      ],
      "payable": false,
      "stateMutability": "view",
      "type": "function"
    },
    {
      "constant": true,
      "inputs": [],
      "name": "owner",
      "outputs": [
        {
          "internalType": "address payable",
          "name": "",
          "type": "address"
        }
      ],
      "payable": false,
      "stateMutability": "view",
      "type": "function"
    },
    {
      "constant": true,
      "inputs": [
        {
          "internalType": "address",
          "name": "",
          "type": "address"
        },
        {
          "internalType": "uint256",
          "name": "",
          "type": "uint256"
        }
      ],
      "name": "playerBetsList",
      "outputs": [
        {
          "internalType": "uint256",
          "name": "matchId",
          "type": "uint256"
        },
        {
          "internalType": "uint256",
          "name": "amountBet",
          "type": "uint256"
        },
        {
          "internalType": "string",
          "name": "teamSelected",
          "type": "string"
        }
      ],
      "payable": false,
      "stateMutability": "view",
      "type": "function"
    },
    {
      "constant": false,
      "inputs": [],
      "name": "kill",
      "outputs": [],
      "payable": false,
      "stateMutability": "nonpayable",
      "type": "function"
    },
    {
      "constant": true,
      "inputs": [
        {
          "internalType": "address",
          "name": "player",
          "type": "address"
        },
        {
          "internalType": "uint256",
          "name": "matchId",
          "type": "uint256"
        }
      ],
      "name": "checkPlayerExists",
      "outputs": [
        {
          "internalType": "bool",
          "name": "",
          "type": "bool"
        }
      ],
      "payable": false,
      "stateMutability": "view",
      "type": "function"
    },
    {
      "constant": true,
      "inputs": [
        {
          "internalType": "uint256",
          "name": "matchId",
          "type": "uint256"
        }
      ],
      "name": "checkBetExists",
      "outputs": [
        {
          "internalType": "bool",
          "name": "",
          "type": "bool"
        }
      ],
      "payable": false,
      "stateMutability": "view",
      "type": "function"
    },
    {
      "constant": false,
      "inputs": [
        {
          "internalType": "uint256",
          "name": "_matchId",
          "type": "uint256"
        },
        {
          "internalType": "string",
          "name": "_teamSelected",
          "type": "string"
        }
      ],
      "name": "setBet",
      "outputs": [],
      "payable": true,
      "stateMutability": "payable",
      "type": "function"
    },
    {
      "constant": false,
      "inputs": [
        {
          "internalType": "uint256",
          "name": "matchId",
          "type": "uint256"
        },
        {
          "internalType": "string",
          "name": "teamWinner",
          "type": "string"
        }
      ],
      "name": "distributePrizes",
      "outputs": [],
      "payable": false,
      "stateMutability": "nonpayable",
      "type": "function"
    },
    {
      "constant": true,
      "inputs": [
        {
          "internalType": "uint256",
          "name": "matchId",
          "type": "uint256"
        }
      ],
      "name": "AmountHome",
      "outputs": [
        {
          "internalType": "uint256",
          "name": "",
          "type": "uint256"
        }
      ],
      "payable": false,
      "stateMutability": "view",
      "type": "function"
    },
    {
      "constant": true,
      "inputs": [
        {
          "internalType": "uint256",
          "name": "matchId",
          "type": "uint256"
        }
      ],
      "name": "AmountAway",
      "outputs": [
        {
          "internalType": "uint256",
          "name": "",
          "type": "uint256"
        }
      ],
      "payable": false,
      "stateMutability": "view",
      "type": "function"
    },
    {
      "constant": true,
      "inputs": [
        {
          "internalType": "uint256",
          "name": "matchId",
          "type": "uint256"
        }
      ],
      "name": "AmountDraw",
      "outputs": [
        {
          "internalType": "uint256",
          "name": "",
          "type": "uint256"
        }
      ],
      "payable": false,
      "stateMutability": "view",
      "type": "function"
    }
  ],
  "bytecode": "0x60806040526103e860035534801561001657600080fd5b50336000806101000a81548173ffffffffffffffffffffffffffffffffffffffff021916908373ffffffffffffffffffffffffffffffffffffffff160217905550655af3107a4000600181905550611d31806100736000396000f3fe6080604052600436106100c25760003560e01c80638da5cb5b1161007f578063b006fd4b11610059578063b006fd4b146103d8578063c38a8afd146104ba578063e08a96cd146104e5578063e310e18714610510576100c2565b80638da5cb5b146102bf578063a0caa09314610316578063a1d5ada714610365576100c2565b80632ca8c6d3146100c75780633d0270e1146100f257806341c0e1b5146101415780634cb6f71a146101585780635b46bf5b1461021d5780638363b00c14610270575b600080fd5b3480156100d357600080fd5b506100dc6105e2565b6040518082815260200191505060405180910390f35b3480156100fe57600080fd5b5061012b6004803603602081101561011557600080fd5b81019080803590602001909291905050506105e8565b6040518082815260200191505060405180910390f35b34801561014d57600080fd5b50610156610674565b005b61021b6004803603604081101561016e57600080fd5b81019080803590602001909291908035906020019064010000000081111561019557600080fd5b8201836020820111156101a757600080fd5b803590602001918460018302840111640100000000831117156101c957600080fd5b91908080601f016020809104026020016040519081016040528093929190818152602001838380828437600081840152601f19601f820116905080830192505050505050509192919290505050610705565b005b34801561022957600080fd5b506102566004803603602081101561024057600080fd5b810190808035906020019092919050505061103a565b604051808215151515815260200191505060405180910390f35b34801561027c57600080fd5b506102a96004803603602081101561029357600080fd5b8101908080359060200190929190505050611097565b6040518082815260200191505060405180910390f35b3480156102cb57600080fd5b506102d4611123565b604051808273ffffffffffffffffffffffffffffffffffffffff1673ffffffffffffffffffffffffffffffffffffffff16815260200191505060405180910390f35b34801561032257600080fd5b5061034f6004803603602081101561033957600080fd5b8101908080359060200190929190505050611148565b6040518082815260200191505060405180910390f35b34801561037157600080fd5b506103be6004803603604081101561038857600080fd5b81019080803573ffffffffffffffffffffffffffffffffffffffff169060200190929190803590602001909291905050506111d4565b604051808215151515815260200191505060405180910390f35b3480156103e457600080fd5b50610431600480360360408110156103fb57600080fd5b81019080803573ffffffffffffffffffffffffffffffffffffffff169060200190929190803590602001909291905050506112f8565b6040518084815260200183815260200180602001828103825283818151815260200191508051906020019080838360005b8381101561047d578082015181840152602081019050610462565b50505050905090810190601f1680156104aa5780820380516001836020036101000a031916815260200191505b5094505050505060405180910390f35b3480156104c657600080fd5b506104cf6113d4565b6040518082815260200191505060405180910390f35b3480156104f157600080fd5b506104fa6113da565b6040518082815260200191505060405180910390f35b34801561051c57600080fd5b506105e06004803603604081101561053357600080fd5b81019080803590602001909291908035906020019064010000000081111561055a57600080fd5b82018360208201111561056c57600080fd5b8035906020019184600183028401116401000000008311171561058e57600080fd5b91908080601f016020809104026020016040519081016040528093929190818152602001838380828437600081840152601f19601f8201169050808301925050505050505091929192905050506113e0565b005b60025481565b60006105f38261103a565b610600576000905061066f565b60008090505b60058054905081101561066d57826005828154811061062157fe5b9060005260206000209060050201600001541415610660576005818154811061064657fe5b90600052602060002090600502016003015491505061066f565b8080600101915050610606565b505b919050565b6000809054906101000a900473ffffffffffffffffffffffffffffffffffffffff1673ffffffffffffffffffffffffffffffffffffffff163373ffffffffffffffffffffffffffffffffffffffff161415610703576000809054906101000a900473ffffffffffffffffffffffffffffffffffffffff1673ffffffffffffffffffffffffffffffffffffffff16ff5b565b61070f33836111d4565b1561071957600080fd5b60015434101561072857600080fd5b600660003373ffffffffffffffffffffffffffffffffffffffff1673ffffffffffffffffffffffffffffffffffffffff16815260200190815260200160002060405180606001604052808481526020013481526020018381525090806001815401808255809150509060018203906000526020600020906003020160009091929091909150600082015181600001556020820151816001015560408201518160020190805190602001906107dd929190611b45565b505050506107ea8261103a565b610d5d5760043390806001815401808255809150509060018203906000526020600020016000909192909190916101000a81548173ffffffffffffffffffffffffffffffffffffffff021916908373ffffffffffffffffffffffffffffffffffffffff1602179055505060405160200180807f686f6d6500000000000000000000000000000000000000000000000000000000815250600401905060405160208183030381529060405280519060200120816040516020018082805190602001908083835b602083106108d257805182526020820191506020810190506020830392506108af565b6001836020036101000a038019825116818451168082178552505050505050905001915050604051602081830303815290604052805190602001201415610a3c5760056040518060a00160405280848152602001348152602001600081526020016000815260200160048054806020026020016040519081016040528092919081815260200182805480156109bc57602002820191906000526020600020905b8160009054906101000a900473ffffffffffffffffffffffffffffffffffffffff1673ffffffffffffffffffffffffffffffffffffffff1681526020019060010190808311610972575b505050505081525090806001815401808255809150509060018203906000526020600020906005020160009091929091909150600082015181600001556020820151816001015560408201518160020155606082015181600301556080820151816004019080519060200190610a33929190611bc5565b50505050610d4a565b60405160200180807f6177617900000000000000000000000000000000000000000000000000000000815250600401905060405160208183030381529060405280519060200120816040516020018082805190602001908083835b60208310610aba5780518252602082019150602081019050602083039250610a97565b6001836020036101000a038019825116818451168082178552505050505050905001915050604051602081830303815290604052805190602001201415610c245760056040518060a0016040528084815260200160008152602001348152602001600081526020016004805480602002602001604051908101604052809291908181526020018280548015610ba457602002820191906000526020600020905b8160009054906101000a900473ffffffffffffffffffffffffffffffffffffffff1673ffffffffffffffffffffffffffffffffffffffff1681526020019060010190808311610b5a575b505050505081525090806001815401808255809150509060018203906000526020600020906005020160009091929091909150600082015181600001556020820151816001015560408201518160020155606082015181600301556080820151816004019080519060200190610c1b929190611bc5565b50505050610d49565b60056040518060a0016040528084815260200160008152602001600081526020013481526020016004805480602002602001604051908101604052809291908181526020018280548015610ccd57602002820191906000526020600020905b8160009054906101000a900473ffffffffffffffffffffffffffffffffffffffff1673ffffffffffffffffffffffffffffffffffffffff1681526020019060010190808311610c83575b505050505081525090806001815401808255809150509060018203906000526020600020906005020160009091929091909150600082015181600001556020820151816001015560408201518160020155606082015181600301556080820151816004019080519060200190610d44929190611bc5565b505050505b5b60046000610d589190611c4f565b611036565b60008090505b600580549050811015611034578260058281548110610d7e57fe5b90600052602060002090600502016000015414156110275760058181548110610da357fe5b90600052602060002090600502016004013390806001815401808255809150509060018203906000526020600020016000909192909190916101000a81548173ffffffffffffffffffffffffffffffffffffffff021916908373ffffffffffffffffffffffffffffffffffffffff1602179055505060405160200180807f686f6d6500000000000000000000000000000000000000000000000000000000815250600401905060405160208183030381529060405280519060200120826040516020018082805190602001908083835b60208310610e965780518252602082019150602081019050602083039250610e73565b6001836020036101000a038019825116818451168082178552505050505050905001915050604051602081830303815290604052805190602001201415610f08573460058281548110610ee557fe5b906000526020600020906005020160010160008282540192505081905550611026565b60405160200180807f6177617900000000000000000000000000000000000000000000000000000000815250600401905060405160208183030381529060405280519060200120826040516020018082805190602001908083835b60208310610f865780518252602082019150602081019050602083039250610f63565b6001836020036101000a038019825116818451168082178552505050505050905001915050604051602081830303815290604052805190602001201415610ff8573460058281548110610fd557fe5b906000526020600020906005020160020160008282540192505081905550611025565b346005828154811061100657fe5b9060005260206000209060050201600301600082825401925050819055505b5b5b8080600101915050610d63565b505b5050565b600080600090505b60058054905081101561108c57826005828154811061105d57fe5b906000526020600020906005020160000154141561107f576001915050611092565b8080600101915050611042565b50600090505b919050565b60006110a28261103a565b6110af576000905061111e565b60008090505b60058054905081101561111c5782600582815481106110d057fe5b906000526020600020906005020160000154141561110f57600581815481106110f557fe5b90600052602060002090600502016001015491505061111e565b80806001019150506110b5565b505b919050565b6000809054906101000a900473ffffffffffffffffffffffffffffffffffffffff1681565b60006111538261103a565b61116057600090506111cf565b60008090505b6005805490508110156111cd57826005828154811061118157fe5b90600052602060002090600502016000015414156111c057600581815481106111a657fe5b9060005260206000209060050201600201549150506111cf565b8080600101915050611166565b505b919050565b600080600090505b6005805490508110156112ec5782600582815481106111f757fe5b90600052602060002090600502016000015414156112df5760008090505b6005828154811061122257fe5b9060005260206000209060050201600401805490508110156112dd578473ffffffffffffffffffffffffffffffffffffffff166005838154811061126257fe5b9060005260206000209060050201600401828154811061127e57fe5b9060005260206000200160009054906101000a900473ffffffffffffffffffffffffffffffffffffffff1673ffffffffffffffffffffffffffffffffffffffff1614156112d0576001925050506112f2565b8080600101915050611215565b505b80806001019150506111dc565b50600090505b92915050565b6006602052816000526040600020818154811061131157fe5b906000526020600020906003020160009150915050806000015490806001015490806002018054600181600116156101000203166002900480601f0160208091040260200160405190810160405280929190818152602001828054600181600116156101000203166002900480156113ca5780601f1061139f576101008083540402835291602001916113ca565b820191906000526020600020905b8154815290600101906020018083116113ad57829003601f168201915b5050505050905083565b60015481565b60035481565b6113e8611c70565b60008090506000809050600080905060008060008060008090505b6005805490508110156119e6578a6005828154811061141e57fe5b90600052602060002090600502016000015414156119d95760008090505b6005828154811061144957fe5b906000526020600020906005020160040180549050811015611727576005828154811061147257fe5b9060005260206000209060050201600401818154811061148e57fe5b9060005260206000200160009054906101000a900473ffffffffffffffffffffffffffffffffffffffff16925060008090505b600660008573ffffffffffffffffffffffffffffffffffffffff1673ffffffffffffffffffffffffffffffffffffffff1681526020019081526020016000208054905081101561171957600660008573ffffffffffffffffffffffffffffffffffffffff1673ffffffffffffffffffffffffffffffffffffffff168152602001908152602001600020818154811061155557fe5b9060005260206000209060030201600001548d141561170c578094508b6040516020018082805190602001908083835b602083106115a85780518252602082019150602081019050602083039250611585565b6001836020036101000a03801982511681845116808217855250505050505090500191505060405160208183030381529060405280519060200120600660008673ffffffffffffffffffffffffffffffffffffffff1673ffffffffffffffffffffffffffffffffffffffff168152602001908152602001600020828154811061162d57fe5b9060005260206000209060030201600201604051602001808280546001816001161561010002031660029004801561169c5780601f1061167a57610100808354040283529182019161169c565b820191906000526020600020905b815481529060010190602001808311611688575b505091505060405160208183030381529060405280519060200120141561170b57838b8b6103e881106116cb57fe5b602002019073ffffffffffffffffffffffffffffffffffffffff16908173ffffffffffffffffffffffffffffffffffffffff168152505089806001019a50505b5b80806001019150506114c1565b50808060010191505061143c565b5060405160200180807f686f6d65000000000000000000000000000000000000000000000000000000008152506004019050604051602081830303815290604052805190602001208a6040516020018082805190602001908083835b602083106117a65780518252602082019150602081019050602083039250611783565b6001836020036101000a03801982511681845116808217855250505050505090500191505060405160208183030381529060405280519060200120141561184e57600581815481106117f457fe5b9060005260206000209060050201600301546005828154811061181357fe5b9060005260206000209060050201600201540196506005818154811061183557fe5b90600052602060002090600502016001015495506119d8565b60405160200180807f61776179000000000000000000000000000000000000000000000000000000008152506004019050604051602081830303815290604052805190602001208a6040516020018082805190602001908083835b602083106118cc57805182526020820191506020810190506020830392506118a9565b6001836020036101000a038019825116818451168082178552505050505050905001915050604051602081830303815290604052805190602001201415611974576005818154811061191a57fe5b9060005260206000209060050201600301546005828154811061193957fe5b9060005260206000209060050201600101540196506005818154811061195b57fe5b90600052602060002090600502016002015495506119d7565b6005818154811061198157fe5b906000526020600020906005020160020154600582815481106119a057fe5b906000526020600020906005020160010154019650600581815481106119c257fe5b90600052602060002090600502016003015495505b5b5b8080600101915050611403565b5060008090505b87811015611b3057600073ffffffffffffffffffffffffffffffffffffffff1689826103e88110611a1a57fe5b602002015173ffffffffffffffffffffffffffffffffffffffff1614611a4f5788816103e88110611a4757fe5b602002015194505b600660008673ffffffffffffffffffffffffffffffffffffffff1673ffffffffffffffffffffffffffffffffffffffff1681526020019081526020016000208381548110611a9957fe5b906000526020600020906003020160010154935088816103e88110611aba57fe5b602002015173ffffffffffffffffffffffffffffffffffffffff166108fc612710886127108b0281611ae857fe5b0461271001870281611af657fe5b049081150290604051600060405180830381858888f19350505050158015611b22573d6000803e3d6000fd5b5080806001019150506119ed565b50600095506000945050505050505050505050565b828054600181600116156101000203166002900490600052602060002090601f016020900481019282601f10611b8657805160ff1916838001178555611bb4565b82800160010185558215611bb4579182015b82811115611bb3578251825591602001919060010190611b98565b5b509050611bc19190611c94565b5090565b828054828255906000526020600020908101928215611c3e579160200282015b82811115611c3d5782518260006101000a81548173ffffffffffffffffffffffffffffffffffffffff021916908373ffffffffffffffffffffffffffffffffffffffff16021790555091602001919060010190611be5565b5b509050611c4b9190611cb9565b5090565b5080546000825590600052602060002090810190611c6d9190611c94565b50565b60405180617d0001604052806103e890602082028038833980820191505090505090565b611cb691905b80821115611cb2576000816000905550600101611c9a565b5090565b90565b611cf991905b80821115611cf557600081816101000a81549073ffffffffffffffffffffffffffffffffffffffff021916905550600101611cbf565b5090565b9056fea265627a7a723158207a5bbfb435f1507ae804dd4ecac89967b41ef77bae192495c18c09ebc08b229564736f6c63430005100032",
  "source": "// SPDX-License-Identifier: GPL-3.0\n\npragma solidity >0.4.99;\n\ncontract Betting {\n    address payable public owner;\n    uint256 public minimumBet;\n    uint256 public numberOfBets;\n    uint256 public maxAmountOfBets = 1000;\n\n    struct Bet {\n        uint256 matchId;\n        uint256 totalBetHome;\n        uint256 totalBetAway;\n        uint256 totalBetDraw;\n        address payable[] players;\n    }\n\n    address payable[] addr;\n\n    Bet[] betsList;\n\n    struct playerBet {\n        uint256 matchId;\n        uint256 amountBet;\n        string teamSelected;\n    }\n\n    mapping(address => playerBet[]) public playerBetsList;\n\n    constructor() public {\n        owner = msg.sender;\n        minimumBet = 100000000000000;\n    }\n\n    function kill() public {\n        if (msg.sender == owner) selfdestruct(owner);\n    }\n\n    function checkPlayerExists(address player, uint256 matchId)\n        public\n        view\n        returns (bool)\n    {\n        for (uint256 i = 0; i < betsList.length; i++) {\n            if (betsList[i].matchId == matchId) {\n                for (uint256 j = 0; j < betsList[i].players.length; j++) {\n                    if (betsList[i].players[j] == player) return true;\n                }\n            }\n        }\n        return false;\n    }\n\n    function checkBetExists(uint256 matchId) public view returns (bool) {\n        for (uint256 i = 0; i < betsList.length; i++) {\n            if (betsList[i].matchId == matchId) return true;\n        }\n        return false;\n    }\n\n    function setBet(uint256 _matchId, string memory _teamSelected)\n        public\n        payable\n    {\n        require(!checkPlayerExists(msg.sender, _matchId));\n        require(msg.value >= minimumBet);\n\n        playerBetsList[msg.sender].push(\n            playerBet(_matchId, msg.value, _teamSelected)\n        );\n\n        if (!checkBetExists(_matchId)) {\n            addr.push(msg.sender);\n            if (\n                keccak256(abi.encodePacked(_teamSelected)) ==\n                keccak256(abi.encodePacked(\"home\"))\n            ) {\n                betsList.push(Bet(_matchId, msg.value, 0, 0, addr));\n            } else if (\n                keccak256(abi.encodePacked(_teamSelected)) ==\n                keccak256(abi.encodePacked(\"away\"))\n            ) {\n                betsList.push(Bet(_matchId, 0, msg.value, 0, addr));\n            } else {\n                betsList.push(Bet(_matchId, 0, 0, msg.value, addr));\n            }\n            delete addr;\n        } else {\n            for (uint256 i = 0; i < betsList.length; i++) {\n                if (betsList[i].matchId == _matchId) {\n                    betsList[i].players.push(msg.sender);\n                    if (\n                        keccak256(abi.encodePacked(_teamSelected)) ==\n                        keccak256(abi.encodePacked(\"home\"))\n                    ) {\n                        betsList[i].totalBetHome += msg.value;\n                    } else if (\n                        keccak256(abi.encodePacked(_teamSelected)) ==\n                        keccak256(abi.encodePacked(\"away\"))\n                    ) {\n                        betsList[i].totalBetAway += msg.value;\n                    } else {\n                        betsList[i].totalBetDraw += msg.value;\n                    }\n                }\n            }\n        }\n    }\n\n    function distributePrizes(uint256 matchId, string memory teamWinner)\n        public\n    {\n        address payable[1000] memory winners;\n        uint256 count = 0; // This is the count for the array of winners\n        uint256 LoserBet = 0; //This will take the value of all losers bet\n        uint256 WinnerBet = 0; //This will take the value of all winners bet\n        address add;\n        uint256 bet;\n        uint256 betIndex;\n        address payable playerAddress;\n\n        for (uint256 i = 0; i < betsList.length; i++) {\n            if (betsList[i].matchId == matchId) {\n                for (uint256 j = 0; j < betsList[i].players.length; j++) {\n                    playerAddress = betsList[i].players[j];\n                    for (\n                        uint256 k = 0;\n                        k < playerBetsList[playerAddress].length;\n                        k++\n                    ) {\n                        if (\n                            matchId == playerBetsList[playerAddress][k].matchId\n                        ) {\n                            betIndex = k;\n                            if (\n                                keccak256(\n                                    abi.encodePacked(\n                                        playerBetsList[playerAddress][k]\n                                            .teamSelected\n                                    )\n                                ) == keccak256(abi.encodePacked(teamWinner))\n                            ) {\n                                winners[count] = playerAddress;\n                                count++;\n                            }\n                        }\n                    }\n                }\n                if (\n                    keccak256(abi.encodePacked(teamWinner)) ==\n                    keccak256(abi.encodePacked(\"home\"))\n                ) {\n                    LoserBet =\n                        betsList[i].totalBetAway +\n                        betsList[i].totalBetDraw;\n                    WinnerBet = betsList[i].totalBetHome;\n                } else if (\n                    keccak256(abi.encodePacked(teamWinner)) ==\n                    keccak256(abi.encodePacked(\"away\"))\n                ) {\n                    LoserBet =\n                        betsList[i].totalBetHome +\n                        betsList[i].totalBetDraw;\n                    WinnerBet = betsList[i].totalBetAway;\n                } else {\n                    LoserBet =\n                        betsList[i].totalBetHome +\n                        betsList[i].totalBetAway;\n                    WinnerBet = betsList[i].totalBetDraw;\n                }\n            }\n        }\n\n        for (uint256 i = 0; i < count; i++) {\n            if (winners[i] != address(0)) add = winners[i];\n            bet = playerBetsList[add][betIndex].amountBet;\n            winners[i].transfer(\n                (bet * (10000 + ((LoserBet * 10000) / WinnerBet))) / 10000\n            );\n        }\n\n        LoserBet = 0;\n        WinnerBet = 0;\n    }\n\n    function AmountHome(uint256 matchId) public view returns (uint256) {\n        if (!checkBetExists(matchId)) {\n            return 0;\n        } else {\n            for (uint256 i = 0; i < betsList.length; i++) {\n                if (betsList[i].matchId == matchId)\n                    return betsList[i].totalBetHome;\n            }\n        }\n    }\n\n    function AmountAway(uint256 matchId) public view returns (uint256) {\n        if (!checkBetExists(matchId)) {\n            return 0;\n        } else {\n            for (uint256 i = 0; i < betsList.length; i++) {\n                if (betsList[i].matchId == matchId)\n                    return betsList[i].totalBetAway;\n            }\n        }\n    }\n\n    function AmountDraw(uint256 matchId) public view returns (uint256) {\n        if (!checkBetExists(matchId)) {\n            return 0;\n        } else {\n            for (uint256 i = 0; i < betsList.length; i++) {\n                if (betsList[i].matchId == matchId)\n                    return betsList[i].totalBetDraw;\n            }\n        }\n    }\n}",
  "sourcePath": "/Users/sebastiencarret/Documents/projets/perso/bethClic/contracts/Betting.sol",
  "compiler": {
    "name": "solc",
    "version": "0.5.16+commit.9c3226ce.Emscripten.clang"
  },
  "schemaVersion": "3.4.3",
  "updatedAt": "2021-11-03T11:02:12.424Z",
  "networkType": "ethereum",
  "devdoc": {
    "methods": {}
  },
  "userdoc": {
    "methods": {}
  }
}